:100000000C945E000C9486000C9486000C94860080
:100010000C9486000C9486000C9486000C94860048
:100020000C9486000C9486000C9486000C94240694
:100030000C9486000C9486000C9486000C94860028
:100040000C943A010C9486000C94CF040C94120585
:100050000C9486000C9486000C9486000C94860008
:100060000C9486000C94860000000007000201003A
:100070000003040600000000000000000102040864
:100080001020408001020408102001020408102002
:10009000040404040404040402020202020203032E
:1000A0000303030300000000250028002B000000CC
:1000B0000000240027002A003601CE0511241FBEAF
:1000C000CFEFD8E0DEBFCDBF11E0A0E0B1E0E2ECC1
:1000D000F1E102C005900D92A032B107D9F722E0FC
:1000E000A0E2B1E001C01D92A030B207E1F710E03C
:1000F000CCEBD0E004C02297FE010E94CC08C83BA4
:10010000D107C9F70E9430040C945F080C940000DA
:1001100067E070E084E291E00E947A0740E855E2EF
:1001200060E070E080E391E00E944D0561E0809125
:100130000C010E94310261E0809108010E943102AD
:1001400061E0809106010E94310261E0809104012A
:100150000C9431020F931F93CF93DF93EC018B012B
:1001600061E080910C010E946A020130110519F0D2
:1001700011E060E002C010E061E0809106010E94A1
:100180006A02612F809104010E946A02BE0180917F
:100190000801DF91CF911F910F910C94BD0260E097
:1001A00080910C010C946A02809122010E94A002AD
:1001B00090932101809320014AE050E0BC0180E34C
:1001C00091E00E94180480912001909121018B3FC1
:1001D0009105C4F10E94CF006AEF70E080E090E0EA
:1001E0000E94A7016AE570E084E291E00E94B307F3
:1001F00068EE73E080E090E00E94A70161E070E0AB
:1002000080910A0190910B010E94AA0068EE73E0B0
:1002100080E090E00E94A7010E94CF006AEF70E0AA
:1002200080E090E00E94A70160E070E080910A0108
:1002300090910B010E94AA0068EE73E080E090E0CC
:100240000C94A70160E070E084E291E00E94B307A3
:1002500064E170E080E090E00E94A70160E070E05F
:1002600080910A0190910B010C94AA0084E291E024
:100270000C94E0061F920F920FB60F9211242F9349
:100280003F938F939F93AF93BF9380912801909159
:100290002901A0912A01B0912B013091270123E07F
:1002A000230F2D3720F40196A11DB11D05C026E8AE
:1002B000230F0296A11DB11D2093270180932801D1
:1002C00090932901A0932A01B0932B0180912C01D6
:1002D00090912D01A0912E01B0912F010196A11DA9
:1002E000B11D80932C0190932D01A0932E01B0930A
:1002F0002F01BF91AF919F918F913F912F910F90BF
:100300000FBE0F901F9018953FB7F89480912C0165
:1003100090912D01A0912E01B0912F0126B5A89B9F
:1003200005C02F3F19F00196A11DB11D3FBF6627E3
:10033000782F892F9A2F620F711D811D911D42E028
:10034000660F771F881F991F4A95D1F70895CF929E
:10035000DF92EF92FF92CF93DF936B017C010E94BB
:100360008401EB01C114D104E104F10479F00E948D
:1003700084016C1B7D0B683E7340A0F381E0C81ABA
:10038000D108E108F108C851DC4FECCFDF91CF91E3
:10039000FF90EF90DF90CF900895789484B58260BD
:1003A00084BD84B5816084BD85B5826085BD85B519
:1003B000816085BDEEE6F0E0808181608083E1E8C8
:1003C000F0E0108280818260808380818160808300
:1003D000E0E8F0E0808181608083E1EBF0E0808103
:1003E00084608083E0EBF0E0808181608083EAE7D5
:1003F000F0E080818460808380818260808380815E
:10040000816080838081806880831092C10008951C
:10041000833081F028F4813099F08230A1F0089582
:100420008630A9F08730B9F08430D1F48091800013
:100430008F7D03C0809180008F7780938000089526
:1004400084B58F7702C084B58F7D84BD0895809177
:10045000B0008F7703C08091B0008F7D8093B00093
:100460000895CF93DF9390E0FC01E458FF4F24916F
:10047000FC01E057FF4F8491882349F190E0880FF9
:10048000991FFC01E255FF4FA591B4918C559F4FE8
:10049000FC01C591D4919FB7611108C0F8948C916B
:1004A000209582238C93888182230AC0623051F484
:1004B000F8948C91322F309583238C938881822BF2
:1004C000888304C0F8948C91822B8C939FBFDF911A
:1004D000CF9108950F931F93CF93DF931F92CDB7C2
:1004E000DEB7282F30E0F901E859FF4F8491F90178
:1004F000E458FF4F1491F901E057FF4F0491002396
:10050000C9F0882321F069830E9408026981E02FE5
:10051000F0E0EE0FFF1FEC55FF4FA591B4919FB790
:10052000F8948C91611103C01095812301C0812B37
:100530008C939FBF0F90DF91CF911F910F910895E2
:100540008E3008F08E50877020910E0190E4299F24
:1005500090011124822B80937C0080917A0080642A
:1005600080937A0080917A0086FDFCCF809178009C
:100570002091790090E0922B08951F93CF93DF9301
:10058000182FEB0161E00E943102209711F460E026
:1005900004C0CF3FD10539F461E0812FDF91CF91C5
:1005A0001F910C946A02E12FF0E0E859FF4FE491AB
:1005B000E330F9F048F4E130B9F0E230A1F584B568
:1005C000806284BDC8BD34C0E630E9F0E73019F17F
:1005D000E43049F580918000806280938000D09360
:1005E0008B00C0938A0024C084B5806884BDC7BDD9
:1005F0001FC080918000806880938000D093890024
:10060000C093880015C08091B00080688093B000CE
:10061000C093B3000DC08091B00080628093B000A1
:10062000C093B40005C0C038D1050CF0B5CFAFCF32
:10063000DF91CF911F910895CF92DF92EF92FF92B9
:100640000F931F93CF93DF936C017A01EB01E60EBA
:10065000F71E00E010E0CE15DF0561F06991D601CC
:10066000ED91FC910190F081E02DC6010995080FF4
:10067000191FF1CFC801DF91CF911F910F91FF900A
:10068000EF90DF90CF9008956115710581F0DB0147
:100690000D900020E9F7AD0141505109461B570B61
:1006A000DC01ED91FC910280F381E02D099480E062
:1006B00090E00895DC01ED91FC910190F081E02D36
:1006C00009940F931F93CF93DF93EC016DE00E9489
:1006D0005A038C016AE0CE010E945A03800F911FD9
:1006E000DF91CF911F910F9108958F929F92AF92BA
:1006F000BF92CF92DF92EF92FF920F931F93CF930F
:10070000DF93CDB7DEB7A1970FB6F894DEBF0FBE6B
:10071000CDBF7C01C42EE52FCB01D22E19A221E042
:100720002D1510F02AE0D22E8E010F5D1F4F8D2C5B
:10073000912CA12CB12C6C2D7E2FA50194010E942F
:100740007E088C2DD29E80191124015011098A3007
:1007500014F4805D01C0895CF801808321153105A6
:100760004105510521F0C22EE32FCA01E4CFB801A3
:10077000C7010E944403A1960FB6F894DEBF0FBED6
:10078000CDBFDF91CF911F910F91FF90EF90DF9040
:10079000CF90BF90AF909F908F900895CF92DF92AF
:1007A000EF92FF920F931F93CF93DF93EC016A01B7
:1007B0007B012115310579F4E881F9810190F081FF
:1007C000E02D642FDF91CF911F910F91FF90EF905B
:1007D000DF90CF9009942A303105E9F477FF1AC0F1
:1007E0006DE20E945A038C0144275527BA014C1927
:1007F0005D096E097F092AE0CE010E947503800F12
:10080000911FDF91CF911F910F91FF90EF90DF909B
:10081000CF9008952AE0B701A601CE01DF91CF91D4
:100820001F910F91FF90EF90DF90CF900C94750384
:100830000F931F93CF93DF93EC019A01AB016627CF
:1008400057FD6095762F0E94CE038C01CE010E9449
:100850006103800F911FDF91CF911F910F91089538
:100860000E94CD010E948800C9E0D5E00E94D4001A
:100870002097E1F30E940905F9CFFC012485358515
:10088000F901E05CFF4F80819181329620813181B6
:10089000821B930B8F7399270895FC01848595859E
:1008A000FC01E05CFF4F4081518132962081318113
:1008B0004217530741F00190F081E02DE80FF91F36
:1008C000808190E008958FEF9FEF0895FC0184856B
:1008D0009585FC01E05CFF4F40815181329620817B
:1008E00031814217530779F0A081B181A80FB91F58
:1008F0008C91208131812F5F3F4F2F7333273183BC
:10090000208390E008958FEF9FEF0895FC0181A16F
:10091000882329F0A489B5898C9186FFFBCF11A289
:100920000895CF93DF93FC0126853785D901A05C1C
:10093000BF4F8D919C91119701968F739927E90173
:10094000CE5BDF4F4881598184179507D9F30D900D
:10095000BC91A02DA20FB31F6C93A685B785A05C98
:10096000BF4F11969C938E93A689B7892C9181E0F5
:1009700090E0078C02C0880F991F0A94E2F7282B99
:100980002C9381E081A30488F589E02D8081806427
:10099000808381E090E0DF91CF91089508951F92C8
:1009A0000F920FB60F9211242F933F934F938F9373
:1009B0009F93EF93FF938091C00082FD1CC04091F4
:1009C000C6008091D6019091D70101968F73992727
:1009D0002091D8013091D9018217930771F0E091ED
:1009E000D601F091D701EA56FE4F40839093D7018C
:1009F0008093D60102C08091C600FF91EF919F9134
:100A00008F914F913F912F910F900FBE0F901F909C
:100A1000189580E391E00E943D04892B11F00C941D
:100A2000CE0408951F920F920FB60F9211242F93A8
:100A30003F938F939F93EF93FF9320919201309177
:100A4000930180919401909195012817390731F411
:100A50008091C1008F7D8093C10014C0E09194010A
:100A6000F0919501EE5AFE4F208180919401909172
:100A7000950101968F739927909395018093940126
:100A80002093C600FF91EF919F918F913F912F91FD
:100A90000F900FBE0F901F901895CF92DF92EF929C
:100AA000FF92CF93DF93EC016A017B01411581EE48
:100AB000580761057105F9F0EC89FD8981E090E046
:100AC00008A002C0880F991F0A94E2F7808360E0B3
:100AD00079E08DE390E0A70196010E947E08215005
:100AE00031094109510956954795379527952115A3
:100AF00080E1380798F0EC89FD89108260E874E89D
:100B00008EE190E0A70196010E947E0821503109F4
:100B1000410951095695479537952795E889F989EF
:100B20003083EA89FB89208319A2EE89FF894081FD
:100B300081E090E09C010C8C02C0220F331F0A94CC
:100B4000E2F7422B4083EE89FF8940819C010D8CA6
:100B500002C0220F331F0A94E2F7422B4083EE8932
:100B6000FF8940819C010E8C02C0220F331F0A9422
:100B7000E2F7422B4083EE89FF8920810F8C02C06F
:100B8000880F991F0A94E2F7809582238083DF9172
:100B9000CF91FF90EF90DF90CF90089510923301A6
:100BA0001092320188EE93E0A0E0B0E0809334012F
:100BB00090933501A0933601B093370183E191E022
:100BC000909331018093300186E991E090933D014B
:100BD00080933C0182E591E090933F0180933E0138
:100BE00085EC90E0909341018093400184EC90E08B
:100BF000909343018093420180EC90E090934501F3
:100C00008093440181EC90E09093470180934601EA
:100C100082EC90E0909349018093480186EC90E04B
:100C200090934B0180934A0184E080934C0183E0D0
:100C300080934D0187E080934E0185E080934F01C2
:100C400081E08093500108951F920F920FB60F928A
:100C500011242F933F934F935F936F937F938F93C1
:100C60009F93AF93BF93EF93FF938091DB0187FF37
:100C700005C010928500109284001AC02091DB01FB
:100C8000332727FD30958091DA0190E02817390746
:100C90007CF48091DB01992787FD9095FC01EE0F94
:100CA000FF1FE80FF91FE452FE4F808186FD15C03B
:100CB0008091DB018F5F8093DB012091DB01332783
:100CC00027FD30958091DA0190E028173907BCF4B0
:100CD0008091DB018C305CF112C08091DB0199279F
:100CE00087FD9095FC01EE0FFF1FE80FF91FE452FE
:100CF000FE4F808160E08F730E946A02D9CF80919D
:100D0000840090918500049680349C4918F480E416
:100D10009CE905C080918400909185000496909391
:100D20008900809388008FEF8093DB0138C0809129
:100D30008400909185002091DB01332727FD3095B9
:100D4000F901EE0FFF1FE20FF31FE452FE4F218166
:100D50003281820F931F9093890080938800809145
:100D6000DB01992787FD9095FC01EE0FFF1FE80F2F
:100D7000F91FE452FE4F808186FF11C08091DB0194
:100D8000992787FD9095FC01EE0FFF1FE80FF91FD3
:100D9000E452FE4F808161E08F730E946A02FF91EE
:100DA000EF91BF91AF919F918F917F916F915F91E3
:100DB0004F913F912F910F900FBE0F901F9018955C
:100DC0002091DA012C30A0F431E0320F3093DA01B7
:100DD000FC012083822F90E0FC01EE0FFF1FE80F43
:100DE000F91FE452FE4F88EB9BE0928381830895C4
:100DF0002FEFFC0120830895DF92EF92FF920F9373
:100E00001F93CF93DF93EC01D62E7A01890188815D
:100E10008C3008F066C061E08D2D0E94310288811F
:100E2000A82FB0E0FD01EE0FFF1FEA0FFB1FE452F9
:100E3000FE4F2D2D2F739081907C922B908360E23A
:100E400072E06E197F0977FF02C06D5F7F4F759565
:100E5000679575956795698340E659E0401B510B8E
:100E600057FF02C04D5F5F4F559547955595479584
:100E70004A836CE00E9472089CE0899FB0011124B3
:100E800020E030E0A901460F571FFA01EE0FFF1FC7
:100E9000E40FF51FE452FE4F908196FD16C02F5FC0
:100EA0003F4F2C30310571F781110FC01092800037
:100EB00082E0809381001092850010928400B19AA4
:100EC00080916F00826080936F00888190E0FC01C8
:100ED000EE0FFF1FE80FF91FE452FE4F8081806480
:100EE00080838881DF91CF911F910F91FF90EF90C8
:100EF000DF90089520E639E040E252E00C94FC06D1
:100F0000FC0180818C3070F5918128E830E0291B4C
:100F1000310997FD3395220F331F220F331F6217BC
:100F200073077CF0928128E532E0291B310997FD97
:100F30003395220F331F220F331F621773070CF4F0
:100F40009B014FB7F89490E0FC01EE0FFF1FE80FF4
:100F5000F91FE452FE4F22503109220F331F328312
:100F600021834FBF08954F925F926F927F92AF920D
:100F7000BF92CF92DF92EF92FF920F931F93CF9386
:100F8000DF93EC01603282E078070CF040C077FD1F
:100F900006C0653B71052CF064EB70E002C060E0B8
:100FA00070E0898128E830E0281B310987FD3395FE
:100FB000220F331F220F331F5901CC24B7FCC094DA
:100FC000DC2C882777FD8095982F2A8148E552E010
:100FD000421B510927FD5395440F551F440F551FC0
:100FE0002A01662457FC6094762C7F926F925F9260
:100FF0004F9214EBE12EF12C00E010E020E030E005
:10100000A9010E9418080F900F900F900F90CE0129
:10101000DF91CF911F910F91FF90EF90DF90CF90D4
:10102000BF90AF907F906F905F904F900C9480072F
:101030004F925F926F927F92AF92BF92CF92DF9268
:10104000EF92FF920F931F93CF93DF93CDB7DEB74D
:1010500029013A01621B730B840B950B29893A898C
:101060004B895C892A193B094C095D09298B3A8B0C
:101070004B8B5C8B9B01AC0169897A898B899C893C
:101080000E946208E418F50806091709A8019701EB
:101090000E94A0082A0D3B1D4C1D5D1DCA01B9010F
:1010A000DF91CF911F910F91FF90EF90DF90CF9044
:1010B000BF90AF907F906F905F904F900895F8949D
:1010C0000C94DF08DB018F939F930E94BF08BF91B0
:1010D000AF91A29F800D911DA39F900DB29F900D87
:1010E00011240895991B79E004C0991F961708F000
:1010F000961B881F7A95C9F780950895A1E21A2E4C
:10110000AA1BBB1BFD010DC0AA1FBB1FEE1FFF1FAB
:10111000A217B307E407F50720F0A21BB30BE40BFB
:10112000F50B661F771F881F991F1A9469F7609542
:101130007095809590959B01AC01BD01CF010895FC
:10114000052E97FB1EF400940E94B70857FD07D0A8
:101150000E947E0807FC03D04EF40C94B70850950B
:101160004095309521953F4F4F4F5F4F0895909593
:101170008095709561957F4F8F4F9F4F08950E9486
:10118000D008A59F900DB49F900DA49F800D911D38
:1011900011240895EE0FFF1F0590F491E02D09949E
:1011A000A29FB001B39FC001A39F700D811D1124A8
:1011B000911DB29F700D811D1124911D0895F89409
:0211C000FFCF5F
:1011C20001000000080009000300FF000A000100FE
:1011D20000000091041C033D0466044D04860400D3
:00000001FF
